:100000006F006029000000000A03000018030000D0
:1000100000000000000000000000000000000000E0
:1000200000000000000000000000000000000000D0
:10003000180300000000000018030000000000008A
:100040001803000018030000180300001803000044
:100050001803000018030000180300001803000034
:100060001803000018030000180300001803000024
:100070001803000018030000180300001803000014
:100080001803000018030000180300001803000004
:10009000180300001803000018030000010000000E
:1000A000634E050263C305042E86AA857D5515C2DD
:1000B00085466378B6006356C00006068606E36C84
:1000C000B6FE014563E4C500918D558D858205829C
:1000D000F5FA82808682C93F2E8582823305A04050
:1000E0006347B000B305B040C1B7B305B0408682E6
:1000F000653F3305A0408282868263C7050063495D
:1001000005005D372E858282B305B040E35B05FEB6
:100110003305A040513F3305B0408282000099C6AC
:10012000014363D7B600B685054319A00143AE86E7
:100130008D8EBA87B303D700B382F3406349500270
:1001400093C7F6FFFD87FD8EBA9681473386F5404B
:100150006343C00293C7F5FFFD87FD8DB695AE875B
:100160003385E5409306A00263140302828085076D
:10017000A38FC7FED1B73306F5008342060033864E
:10018000F600850723005600D1B7A38FD7FEFD17D1
:100190001386D5FFE30CF6FCE369F7FE828001CEFF
:1001A0008322060001475C426349B70023800700B1
:1001B0004C42B38555402E8582800323860014422D
:1001C0007D139A96E384D7FE9386170054C2B30634
:1001D000E50083C6060005072380D700E9B71111A3
:1001E00006CC22CA26C82A8363560508C1E685477D
:1001F0003303A0403EC01304100619C213041004B8
:10020000BA8459141A853AC62EC41AC2E135A547D4
:100210001243A24532473306850063E4A700130664
:100220000503938714001A852380C4003AC63EC490
:100230002EC29D3D9245A24732472A83634EA002BB
:10024000824699C61306D0022380C70093872400F4
:100250003385E740238007009357F501AA978587E8
:100260003306A700814663CBF600E2405244C24405
:100270007101828002C041B7BE8469B7B305D7005F
:100280008342F6FF03C305007D162380550023003B
:1002900066008506C9BF970100209381611617018A
:1002A00000201301215609651305058873100530D8
:1002B00097060000938606D593E636007390563075
:1002C000138541C0938541C001466356B50010C1F6
:1002D0001105E34EB5FE170500001305A5569385DD
:1002E00041C0138641C06388C500144194C1110503
:1002F0009105E39AC5FEB7F700E0054798C3930759
:1003000020757390173473002030371702401C4754
:10031000B7068000D58F1CC7732510340D247325B4
:100320000030312C73253034192C73252034012CE6
:10033000B70700E09387470F9843137707086DFFCF
:100340000567130757A898C3B70700E09387470FBF
:100350009843137707086DFF37B7AAAA130737A882
:1003600098C301A0AA8703C7070001E73385A74008
:1003700082808507CDBF130141FAA2CAA6C886CCE8
:100380002EC03284B687AA8401E502C09304E01926
:1003900002CA03470400A30FE10001EBE640564404
:1003A0005245C6441301C105828093065002630979
:1003B000D7003EC20504024685451305F101F5A8A4
:1003C000034714001306000393062400A30FE10063
:1003D0003AC4631DC706368401468146254519A8DF
:1003E00013972600369706070504B386E5000347F2
:1003F000F4FF0546930507FD13F3F50FE37265FE61
:1004000019C2A30FE10036C661466353D60032C657
:100410001306C00681456318C700034704008545DD
:100420000504A30FE1000346F10113074006630032
:10043000E6066361C702130780056300E60A130737
:100440003006630DE60A39DA3EC2B5B7130600027C
:1004500032C451B713075007630BE6021307800736
:10046000630DE60613073007E310E6FE1387470027
:100470009C4336CC3AC23E853EC8ED35E246AA855D
:10048000635BD008B2462246424518101DA0138770
:1004900047003AC28DC91306B6F8381893361600CD
:1004A00088430146A945253BB24622461810AA8535
:1004B0002818B5310246AA8508108294D247AA9717
:1004C0003ECA9247F9B5130750076315E60038187E
:1004D0008546F9B738188146E1B7138747003AC215
:1004E0008843130686FA1336160038188546C14528
:1004F000FD31B2462246AA8518105DBF138747001A
:100500009C433AC2B2462246A30FF100181085451B
:100510001305F10179BF0246424545B7111132C6B4
:100520002A862EC436C8814534001305406A06C2A7
:100530003ACA3ECC36C08135924071018280B707FD
:1005400000E09387470F9843137707086DFF37271D
:10055000307813078708B70600E098C39386460FE4
:100560007147A54571569C4293F70708EDFF335339
:10057000E5001373F300B3B76500B307F04093F7DA
:100580007702938707039A97A20793E757089CC2BD
:100590007117E31AC7FC82808280B70700E003A5C9
:1005A000470FB9471375F5031307B5FF63E8E70075
:1005B000B70500E09385550F7115F9BF8280B70725
:1005C00000E09387470F98439306000C1377070CBE
:1005D0006308D70C211106CA22C826C602C4328578
:1005E00055EE9C4389C793F7070891E37D37014592
:1005F000D2404244B244610182807D1709EF9843A2
:100600001367070C98C3E5B737071000B70700E07A
:1006100005079387470F944313F6060879FEB30442
:1006200085409D4763D39700BE8491C62EC22AC0E1
:10063000AD379245024538008D473A8663C6970428
:100640002247B70700E023ACE70E338785008147D8
:10065000034307008507B306F600238066000507FD
:1006600063D597009386D7FFE5F69387440093E719
:1006700007F82304F1002247B70700E0269423AAD5
:10068000E70EE343A4F8ADB7B306F400AE9683C615
:10069000060085070507A30FD7FE4DB70144D5B760
:1006A00001458280611122C02E862E84AA850145D3
:1006B00006C23137924022850244210182805111C5
:1006C00006C422C22AC0793982452A842A86014575
:1006D000FD35856505469385C5830145CD35A24029
:1006E00013051400124431018280B70700E023ACE7
:1006F000070E1307000823AAE70E828037F700E0F1
:100700001C473E951C47898FE3CE07FE8280B727A2
:100710000240054798C3B71702403707080123A2D4
:1007200007001307170898C337079F0098C7984317
:1007300093166700E3DD06FED843B7160240719BAF
:1007400013672700D8C32147DC42B18BE39EE7FE45
:1007500069BF511106C422C226C0553F3717024057
:100760001C4F05651305058193E717021CCF813FD8
:10077000014493044006B707002003A70770B7574A
:100780004357938717836317F706B707002003A71C
:100790004770B747454C93871743631DF704B70667
:1007A0000140DC42370700F97D17F98F3707000455
:1007B000D98FDCC2B717014093870740984313775E
:1007C000F7F098C398431367070198C30947D8CB3C
:1007D0003714014013040440894437C52D0004C870
:1007E0001305056C213F37C52D0044C81305056C62
:1007F0003137F9BF75651305054CFD140137A5FCAC
:1008000005040565A28513054583093B9DB70000D6
:100810000A504431204C45442066772C20534449EB
:10082000206F70656E2C2061726D20746F20626C79
:10083000696E6B00616C6976652025750A000000A1
:00000001FF
